:040000006F60805F4E
:10000400000000000000000004420000064200005E
:1000140000000000F6650000000000000000000081
:10002400F6650000F6650000000000000000000016
:10003400F665000000000000F66500000000000006
:10004400F6650000F6650000F6650000F665000040
:10005400F6650000F6650000F6650000F665000030
:10006400F6650000F6650000F6650000F665000020
:10007400F6650000F6650000F6650000F665000010
:10008400F6650000F6650000F6650000F665000000
:10009400F6650000F6650000F6650000F6650000F0
:1000A400F6650000F6650000F6650000F6650000E0
:1000B400F665000064610000F6650000F665000066
:1000C400F6650000F6650000F6650000F6650000C0
:1000D400F6650000946100009E2F00000E6300008E
:1000E400F6650000F6650000F6650000F6650000A0
:1000F400F6650000F6650000F6650000F665000090
:10010400000000001C490000F66500002C1E0000E1
:10011400F6650000F6650000F6650000F66500006F
:10012400F6650000F6650000F6650000F66500005F
:10013400F6650000F6650000F6650000F66500004F
:10014400F6650000F6650000F6650000F66500003F
:10015400F6650000F6650000F665000046640000E0
:10016400F665000070650000F6650000F6650000A5
:10017400F6650000F6650000F6650000F66500000F
:10018400F6650000F6650000F6650000F6650000FF
:10019400F6650000F6650000F6650000F6650000EF
:1001A400000000000000000000000000000000004B
:0C01B4000000000000000000000000003F
:1001C000397101436EC619A0397141536AC866CAB4
:1001D00062CC5ECE19A0397101535AD056D252D496
:1001E0004ED64AD826DA22DC06DE3301614082820E
:1001F00041114AC026C222C406C68282B24D4101C4
:10020000024D924C224CB24B4101024B924A224A7F
:10021000B2494101024992442244B24041018280E4
:100220003D432A876373C3029377F700BDEFADE5C3
:10023000937606FF3D8ABA960CC34CC30CC74CC7D5
:100240004107E36BD7FE11E28280B306C3408A0602
:100250009702000096966780A6002307B700A306C2
:10026000B7002306B700A305B7002305B700A30412
:10027000B7002304B700A303B7002303B700A3020A
:10028000B7002302B700A301B7002301B700A30002
:10029000B7002300B700828093F5F50F9396850091
:1002A000D58D93960501D58D61B79396270097025A
:1002B000000096968682E78086FA9680C1171D8F89
:1002C0003E96E374C3F8A5B78547631BF500EFF2CC
:1002D0003FF2EF40504013358500134515001DBF18
:1002E000054582808547631BF500EFF27FF0EF4004
:1002F000903E133585001345150029BF05458280C2
:100300000547631EE500EFF2BFEEAE873E85B2857E
:1003100013F6F60FEF50F02C3335A000E5BD114574
:1003200082800547631EE500EFF29FECAE873E85B5
:10033000B28513F6F60FEF5090323335A000D9BDD9
:100340001145828085479146631DF5028947638C7C
:10035000F5028D476380F50481466394A502B737A3
:100360000020938787F0EC47B84793D7F54193F780
:10037000F71F3E97B337F700AE97DE0725835D8FF3
:1003800018C236858280B737002083A787F51EA262
:100390008146C5BF0AA2EDBF014582803C313821AC
:1003A000A207D98F1831A2070821D98FA2075D8D26
:1003B000828093D785000CA11CB193D70501E18100
:1003C0003CA12CB182805849F915791763F8E500F2
:1003D0003E250855B387B7023E958280014582804D
:1003E0001C4185CBBE86930500021306A00385063B
:1003F0000387F6FF1378F70F63FB0503E319C7FEC6
:10040000038607002547130606FD9375F60F6374F0
:10041000B700FD5719A813872700FD576397E6001B
:100420000947B287E347C7FE14C13E8582808147F2
:10043000EDBF11E9814725459CC182802545814753
:100440009CC14101C1BBEFF2BFDA1C4141112A84BA
:10045000F5D7982365D75621FA23E391E6FE883332
:100460002EC69D350589B24571F91C40D1BFBC3DF2
:10047000B82DA207D98F0D476318E500D839D429C4
:100480002207558F4207D98F3E8582809317060138
:10049000C183A183BCBDB0AD18218D476316F700A1
:1004A0004182D0A92182D0B98280EFF27FD4130992
:1004B000050350552A8408318546CA859D358544F3
:1004C00005E550541C50184CA3010400B307F64036
:1004D000814463FBE700342089476397F6000830C6
:1004E00085463A96CA85353D26852DB35C55638988
:1004F000B702EFF2FFCF3C312A84AE8489EF083097
:100500008546268693050403E53B814719C1854747
:10051000FD5444D421A0513FAA8775D13E85DDB951
:1005200081473E858280EFF2BFCCFD575CD5A301A9
:1005300005002A84653F914769E98344F422834793
:10054000E4221307B00EA204DD8C83470403638802
:10055000E700E10793F7F70F05476361F70AAD6717
:10056000938757A5639DF400B70501002146938545
:10057000C5FA13052408EF90F03D814759C583471C
:10058000C4030347B403A207D98FC207C187130767
:1005900000206395E7060347D4032DC39307F7FFB5
:1005A000F98FA9EF8347F4030347E403A207D98F28
:1005B000B1C7834704040547FD176361F704834708
:1005C000240403471404A207D98F8DCB8347440426
:1005D00003473404A207D98F1307F0076368F700B5
:1005E00013050405653BC167636AF500034774049E
:1005F0008347640422075D8F814701EB2D67130752
:1006000057A589476383E4008D473E8521B1EFF20A
:100610009FBC054A8949637DBA085C492A89894992
:1006200063F8F5081C210947B2842E84638BE70820
:100630000D47638CE70A639D470713DA15001C51C9
:100640002E9A93559A00BE955535AA8935E1930A9D
:100650000903130B1A000588137AFA1F569A93F7A9
:10066000F40F09CC83470A008566C11613F7F7001B
:1006700093974400F58FD98F93F7F70F2300FA0073
:100680008547A301F9008327090293559B004A85FA
:10069000BE95A93DAA8909ED137BFB1FDA9A19C8FB
:1006A000918093F4F40F23809A008547A301F90009
:1006B0004E85A1BE83C70A00A180BD88C19BDD8C89
:1006C000DDB71C51A181BE951535AA8975F10604C7
:1006D000930709031374E41F3E9404A0C204C1806D
:1006E000A18004B0A3014901E1B71C519D81BE95D1
:1006F000F53BAA8955FD0A04930709031374C41F27
:100700003E94228561399204B70500F09180E98D0D
:10071000C58D22857939F9B7854763FBB70AEFF2B2
:100720009FAB58492A8463F6E50218218946AE84B6
:100730006300D7068D46630DD706631CF70013D9F7
:1007400015001C512E9993559900BE95453301C54E
:10075000FD573E855DBC1C509309190093D5990047
:100760001379F91F2299BE95228503490903BD3BE0
:1007700065F193F9F91F4E94834704038588A20716
:10078000B3E7270199C09183E9B7D207D183D1B7E5
:100790001C51A181BE95993B45FD860413040403B9
:1007A00093F4E41F26941C301820A207D98F55B764
:1007B0001C519D81BE951D3B41FD139524001304E2
:1007C00004031375C51F2295D13E9317450065BFDD
:1007D00085473E858280EFF21FA02A8AAE890441B8
:1007E00091E903A9C40063050900DC486364F902C8
:1007F00005490DA026850D3785472A8463E5A700A6
:100800000544228519B4FD576305F50ADC48E36AFF
:10081000F5FE4E899C4899E30144E5B7631A390314
:10082000DC48130419006363F400094403250A003B
:10083000A285DD350547E305E5FCFD57630BF506AD
:1008400015CDDC446376F700D84863F3E7003E89B2
:100850004A84854A7D5BDC4805046365F400E3FD5A
:100860002AFB094403250A00A2857D3509C9E3094D
:1008700055F963006505E31024FF79BF71D87D56F3
:10088000A285268569331DE1639D0900D8489C48EF
:10089000C0C479176371F702DC2093E71700DCA06E
:1008A0008DB72286CE8526859D336DD18547E31988
:1008B000F5F47D54B9B7FD179CC8F9BFEFF2BF91AD
:1008C0008547AE84004163F0B7065C4863FDF504DC
:1008D000AA89B28519EA054AFD5A03A50900A68529
:1008E000253D2A8901E9014529A07D562285053348
:1008F0007DD121BA63094503630955030146A685E5
:10090000228531337DF558481C489306E7FF63F88C
:10091000D70085071CC85C2093E717005CA0CA8439
:10092000E36DE9FAC9B70945E9B70545D9B7EFF26B
:100930009F8A011123A0050032892EC65534AD4788
:10094000634B0502931725001387C18BBA97804329
:10095000AA84B1470DC0B2451379E90F80C11C20AC
:1009600099CF083095329377150091EB6305090014
:10097000118911C1A9473E8505616FF01F8913F5E3
:10098000F40F2300040008B0B13A137715008D4727
:100990007DF363040900118971FD8145228561366B
:1009A00089476312F50404081309641F130A6423BA
:1009B000A6894A85E53223A0A90041099109E31AD5
:1009C0002AFF1389040185498C400D4589C522857C
:1009D000993E63F2A9029104E31899FE11478547F5
:1009E0006319E50049BF11478547E306E5F863F45D
:1009F000A700B54749B78347C4030347B403A20719
:100A0000D98FC207C18713070020E394E7FE83490B
:100A1000740483476404A209B3E9F90063960900EA
:100A200013054405A53AAA8983440404232C340100
:100A300005479387F4FF24A093F7F70F032AC40216
:100A4000E369F7FA0349D40393170901C1833EA46C
:100A5000CDD39307F9FFB3F72701C1FF83472404E0
:100A6000834A1404A207B3E75701939A070193DA64
:100A70000A41139B0A01135B0B0123146401937752
:100A8000FB00A5FB034544048347340422055D8D28
:100A900009E513050405EFF07F908347F40303474E
:100AA000E403A207D98FB1D7B386340313574B00A1
:100AB0003E973697E36FE5F2198DB3542503E36A49
:100AC00025F3370600105516E36596F24166551674
:100AD000637696100D4952978904D29718D444C86A
:100AE000232E44011CD00D47631BE90C8347B4053A
:100AF0000347A405A207D98FB3E7FA00C207C1874D
:100B0000E39907EE1305C405EFF05F8948D08A0426
:100B10009384F41FA580E3EE99ECFD571CC85CC4D8
:100B2000930700F85CA08D47631FF90683471406FE
:100B300003470406A207D98FC207C18705476394FC
:100B4000E70693051A002285553231ED8347F422DA
:100B50000347E42223020400A207D98FC2076D775E
:100B6000C187130757A56390E70413050403EFF04B
:100B7000FF82B7576141938727256316F502130556
:100B80004421EFF0BF81B777416193872727631C2A
:100B9000F50013058421EFF07F8008C81305C421F8
:100BA000EFF0CFFF48C4138701821E2323002401E6
:100BB0008507C207C1831EA37EA081476DBBE30AE0
:100BC0000BE2B6975CD089476314F900860489B7B5
:100BD0003387E40285880583BA941DBF05695519DA
:100BE000333999000509C5BDEFF2EFDE0329850011
:100BF00023280500AA8400416319090218208947A7
:100C000063F4E7005C508DE31E2481E709456FF033
:100C1000CFDF5C509CCC9C4C23AA2401E5DB130461
:100C20000403C0CC0145E5B73E893E24FD59054A81
:100C300089EF8840CA85CD342A89630E3501E37770
:100C4000AAFC5C48E367F5FED1B7CA852285EFF0C0
:100C50008FF788CCC9B705455DBFEFF26FD93C313E
:100C60002A84C9EF18208D476312F708582085475A
:100C7000631EF706930404031306002081452685AE
:100C8000EFF00FDA930750052307F4229307A0FA39
:100C9000A307F4220C4893072005130710049306BA
:100CA00020072308F402A308F4029307100623097F
:100CB000F402A309E402230AD420A30AD420230BBC
:100CC000E420A30BF42013058421EFF08FEE4C44B5
:100CD0001305C421EFF0EFED504C083085460506B2
:100CE00050D4A685EFF0EFE323020400083001465C
:100CF0008145EFF02FE53335A00021A0EFF0EFFAAA
:100D000035D16FF02FD1EFF20FCD3C3141112A8454
:100D10009DE72285EFF02FEB1309040348D4AA893D
:100D20001306002081454A85EFF08FCF81443E2491
:100D300063E1F4023E24858FB337F00039A02EC65C
:100D4000EFF0AFF68547B24569D53E8541016FF0BA
:100D5000CFCB0830854633869900CA85EFF06FDC2B
:100D600071F98504E9B7EFF20FC783290501B707C9
:100D700020002A8493890902044163E4F900232CAA
:100D800005001C4C114595C313FAF91FAE8A631078
:100D90000A084C4885071CCC99E99A2493D7590036
:100DA00063E7E706232C040011456FF00FC6BE244D
:100DB00013D79900FD17F98FB9EB2685EFF0DF9572
:100DC000054B2A896364AB000945C5B7FD57631419
:100DD000F5000545D9BFDC486364F502E3840AFCED
:100DE0004C482285CD3A2A891D45E30009FCE30DD4
:100DF00069FDFD57E30FF9FCCA852685293771F98E
:100E0000232A2401CA852685EFF0EFDB08CC9384E2
:100E10000403D2942328340144CC014579B7EFF27E
:100E20002FBA032B0500AA84AE899306F00213079C
:100E3000C005838709006386D70E6384E70E23A469
:100E4000040003C70900FD4763FFE70C938A04020F
:100E5000930BF002130CC005B70C0100130D0B032C
:100E60002D46930500025685EFF08FBB014981475F
:100E7000A14D130600021308E002AD481303000859
:100E80009306F00F930EF003130FE0073387F9007A
:100E90000023138A1700637E8600630474016310C5
:100EA000840BB387490183870700638877096386CA
:100EB0008709D2996307091403C704029307500EE8
:100EC0006315F70095472380F4021307000291474A
:100ED00063778700838609006353D7008147A38522
:100EE000F402268503A9040001332A846312050E47
:100EF0008C4C4A85EFF08FDF2A8479E9C84C1C219D
:100F0000F9C73C3593F7F703FCA03C35A18B91E77B
:100F10002D46D685EF90002445CD81452685A13507
:100F2000E9B7850939B7930700F8A385F402268548
:100F300065392A8422856FF06FAC050A9DB763047A
:100F4000040D6370B90D6372830433874901630B29
:100F5000D406138A27008307070013F7F70F63F2FD
:100F6000EE0A6376EF0063DE0708630CD708938709
:100F7000FDFF6378F90893071900B3852A0180A162
:100F8000D697090998A3D28711B7A2851385CC01FA
:100F9000EFA000593DE59307F4F993F7F70F654E7D
:100FA000130600021308E002AD481303000893067D
:100FB000F00F930EF003130FE0076365FE000114BA
:100FC0001374F40FB3872A0180A305096DBF114480
:100FD00083C7B40201C81147E31EE4F4918BB9FB47
:100FE000154489BF918BB9F7FC20C18BF5DB8C4888
:100FF00003450B0093F5F51FEA95EFF04FC788C442
:1010000085B5194405BFE38E1DFF2149AD4DA5BF30
:10101000EFF26F9CAA8403290500F9362A8439E986
:101020009309500E8C4C4A85EFF04FCC2A8439E15D
:10103000DC4C9C23639A37038C4C4A85EFF00FCB32
:101040002A8405E1C84C130600028145EFF04F9D4C
:10105000C84C2D4693850402EF9000128547A301EA
:10106000F90022856FF06F9AE1DB85452685E53929
:101070002A844DD99147E316F4FE1D44DDB7EFF203
:101080002F9701112AC668082EC432C22ECEEFF067
:101090002FB5634D05021387C18B0A052A971843A4
:1010A0009387C18B124619C323000700324719C327
:1010B00023000700AA9798C3014511C601466C009A
:1010C0002800EFF0DF8605616FF0CF942D45E5BF76
:1010D000EFF28F8F39712EC6254A71C11379F6034D
:1010E000B2842A844A860C086800EFF05F842A8A5A
:1010F00045E5C247B24548083ECA153311E58307A6
:10110000F10363D30700194593F7C401638C0714F7
:1011100059C991476312F5084808DD3D35ED13695B
:101120008900EFF06FA7AA84AA8542553905EFF030
:101130004FA84255A6855905EFF0AFA7C249C25A3C
:1011400003C50900D685EFF08FB293070002A3858F
:10115000FA00C255AA8401464E85EFF02FB3C2575C
:101160000547238E0700A38E0700238F0700A38F58
:101170000700C247B8B3B1C00146A685480883A995
:10118000C702EFF0AFF309E94245CE85FD14EFF059
:10119000EFB5C247C4C715C1232004002A8A52856F
:1011A00021616FF0EF858347A101C58BF1E793F7CC
:1011B00044006394070EA188ADF49377890099C326
:1011C00013690904C24AC254130B840283A7CA02DA
:1011D00044D0A6851CD003C50A00EFF04FA908C46F
:1011E000AA891385C401EFF06F9B83D76A0048C4B6
:1011F00023082401AA84232054015EA0A30804002C
:10120000232E0400232A04001306002081455A855A
:1012100013790902EFF0CF80E30309F8C9D003D9AD
:10122000AA0044C8854A2609FD5B63699904014503
:10123000232C340135F193F7F41FB5D34249CE8501
:101240004A85EFF04F982A86094539D6A58026961B
:1012500050CC034519008546DA85EFF06F8A21D11D
:1012600005451DBF15F98347A10113F7070105EBDC
:101270008988A1D4858BB1D31D4539BF0840CE855F
:10128000B3842441EFF04FC9AA8963F6AA00E31E94
:1012900075F9054571BF094561BF2145F5BD11458A
:1012A000E5BDEFE2FFF10111AE8A23A006006C0854
:1012B0002A8432C6B68BEFF0CF972A8A35E1034AEB
:1012C0001401631F0A041C28858B638F07120329EE
:1012D000C4005C4832463309F94063732601328901
:1012E000130C0020130B8402930CF01F7D5D630927
:1012F00009025C4813F7F71F6319070E7247835DF5
:10130000A70013D79700FD1DB3FDED00639A0D02F2
:1013100081EF0844854763EEA70089471CB8094A56
:10132000528505616FE09FED0C4C0840EFF0CFBE99
:10133000D5B76316A50185471CB8054AD5B708CCB3
:10134000F2470C4C3E853EC6EFF0EF8779D5B38966
:10135000AD00B24763F02C07BA2793549900B386C7
:101360009D006374D700B304B7418833A6864E86C8
:10137000D685EFE0FFF861F18307040163DF070022
:10138000484CB309354163FA9900A60913060020B9
:10139000DA8533853A01EF80305EA60483A70B001F
:1013A00033099940A69AA69723A0FB005C48BE94F7
:1013B00044C835BF504C6308360303070401635C1F
:1013C000070088338546DA85EFE0BFF52DF51C2848
:1013D00093F7F7071CA8F24785464E868833DA85CF
:1013E000EFE01FF229F9232E34014C48CA8493F50B
:1013F000F51FB307BC4063F32701BE842686DA9548
:101400005685EF80705759BF1D4A19BFEFE25FDB69
:1014100001112E8A23A006006C082A843289368B9B
:10142000EFF02F81AA8931E183491401639F0902FA
:101430001C28898B638807165C48338727016374EF
:10144000F70013C9F7FF930B0020930A8402130CD3
:10145000F01FFD5CF9A00C4C2285EFF0CFB76318AC
:10146000050E1C2893E707041CA84E8505616FE054
:10147000FFD86316950185471CB88549FDB71C4404
:1014800008CC91E308C48307040163DE0700F24738
:10149000504C85468833D685EFE0BFE869FD1C28AF
:1014A00093F7F7071CA8F2470C4C3E853EC6EFE0C9
:1014B0009FF14DC1338DAD00B24763712C0BBA273C
:1014C00093549900B3869D006374D700B304B74169
:1014D0008833A6866A86D285EFE0BFE449FD4C4C8E
:1014E000338DA541637E9D00260D13060020B305B4
:1014F000AA015685EF8050481C2893F7F7071CA8CF
:10150000A60483270B0033099940269AA697232027
:10151000FB005C48BE945C4444C863F39700A68714
:101520005CC4E30009F45C4813F7F71F29EB72472A
:10153000835DA70013D79700FD1DB3FDED00E39475
:101540000DF4E39A07F008448145E30705F0854769
:10155000E311F5F289471CB8894901BF584C630E65
:10156000A70154445848637AD700883385466A8671
:10157000D685EFE0FFD8E31005F0232EA4014848FC
:10158000CA841375F51FB387AB4063F32701BE848C
:101590002686D2855695EF80303E1C2893E707F8C3
:1015A0001CA885B79D49D1B5EFE29FC441116C00DD
:1015B0002A84EFE01FE8AA8751E1182893760704F0
:1015C000B5CE6207618763500702B247504C85462B
:1015D000883393058402EFE0DFD4854725E11C289A
:1015E00093F7F7071CA8EFE03FDB2A890C50324540
:1015F000EFE0DFEFAA8739E14450BC34A68593E7DA
:101600000702BCB410440840EFE05FE84C44138587
:10161000C401EFE01FDACA8513856401EFE07FD9CA
:101620003245854723890400A38904003CB1EFF0CB
:10163000CFE21828AA871377F7FB18A83E85410147
:101640006FE05FBDEFE2DFBA41112A84B13F01E9EB
:101650006C002285EFE0FFDD19E123200400410149
:101660006FE05FBBEFE2DFB539712ACE6808368DD7
:101670002E84B28CEFE0DFD6AD466345050E13171E
:1016800025009386C18B3697184319C323000700A2
:101690001379F50F01E44164130484FD4A85EFE0FA
:1016A0007FC4137715008D4655EF1189A9465DE972
:1016B00058403AD609EB70108D454A85EFE09FC837
:1016C00019C105473AD6325721669306F7FF63F4EE
:1016D000C600758F19C305473AD6834B140085465B
:1016E0001387FBFF1377F70F63F3E600854B832D1A
:1016F000840021679386FDFF63F5E60013F7FD0084
:1017000019C3930D00204444370700016360970616
:101710001387F4FF658F39EB1307F01FC54663731A
:10172000A70563810C04101885454A85002002D85E
:10173000EFE05FC185461DE5937784003ECA014B0B
:1017400081EF42579306F0033E8B63F7E6001307E1
:1017500017FC3AD8130BF003C2561307F00763695E
:10176000D700B946368521616FE05FA981446DB726
:10177000C1669386F61F1307000863E4960013D72B
:101780009400937524000588E1C5133414000904FE
:101790002ECC3AC8EFE05FC02AC60D46C25642477B
:1017A000E2456311C4103A8509EF416693D81601EA
:1017B000130686FC05470A2201C5090663FEA80830
:1017C000014533D6E602C178A90813142600130494
:1017D00074204696B708FF0F2580E37416F9BA8483
:1017E000014C2A87930800028D4933057403325354
:1017F000330A1B011306F3FF3303604052956295D1
:101800002A96337666000D43098E63936906B29873
:10181000329A13964400330666413295E3E3A6F408
:1018200033067403B38A8641B38A1A41B38ACA4025
:101830000D46B3DA9A026398C9044166551663648B
:10184000560D05F30547E37E97F013D71400A1BFAB
:10185000CD4609D809442DBF0607B1BF860499A813
:101860000D463304C4028549050405800D048DA08E
:1018700033737603630503007D168508050A335626
:101880007603329479B70946639AC90641665516BC
:10189000637956056313074A13971400130600046F
:1018A0006360E64ABA8401EF416693D8C600130626
:1018B00086FB85440A2201C50906E3F1A8FA33D460
:1018C000960205665516E37D86F8090406048949E3
:1018D0001304F41F139C5D002580135C9C00854855
:1018E00029B70566551663605603E31C07E6139790
:1018F000140013060008E377E6FAA5B50567551747
:10190000E36157E78549130600208145668536CC9B
:1019100046C8EFE0FF90B70501002D46938585FE90
:101920006685EF807005C24809472386EC0023874F
:101930001C01C20893D8080193D88800A3850C0025
:10194000A3869C00A3871C0123887C010D47E246E7
:101950006393E900814D13980D0113580801135842
:101960008800A388BC0123890C01416763F2E60C5F
:101970001397060141832183A389DC00238AEC00AD
:101980006157B247A38AEC001307F003238CEC00E5
:101990007D57238DEC00DA85A38C0C00A38D0C0001
:1019A0001385CC01B38DD700EFE0BFA00D47EE85C6
:1019B0006398E90813853C04EFE0BF9FA285138577
:1019C0004C02EFE01F9F09472386EC02054723885E
:1019D000EC0219472389EC02130700F82380EC047A
:1019E000B705010013079002A3860C0223870C029F
:1019F000A3870C02A3880C02A3890C022381EC04A8
:101A00004D46938545FF13857C04EF80E076930D6A
:101A100050059307A0FA238FBC1FA38FFC1E854699
:101A20005A86E6854A85EFE0DF8F39C585461DBBBE
:101A3000B68513850C0236C8EFE0BF97C24689B75A
:101A400013857C02EFE0FF96131704014183218385
:101A5000A38BEC00130700F82382EC02B70501000A
:101A600013079002238B8C002383EC024D46938551
:101A700085001385BC0251BF0D47639AE90885466E
:101A800013066B00E6854A85EFE0BF891306002048
:101A900081456685EFE0CFF8130720059306100413
:101AA000130620072380EC00A380EC001307100628
:101AB0002381EC00A381DC002382CC1EA382CC1EF8
:101AC0002383DC1EA383EC1E9385FAFF13858C1EF3
:101AD000EFE03F8E09479307A0FA854613067B0087
:101AE000E6852386EC1EA3860C1E23870C1EA38787
:101AF0000C1E238FBC1FA38FFC1E4A85EFE07F8244
:101B0000854613061B00E6854A85EFE09F81137624
:101B10000DE081456685EFE0AFF0E15705473EC82F
:101B2000935A9D006397E900370B000193078BFFE1
:101B30003EC802C6FD5D8D476398F91AE1572380C0
:101B4000FC00BD47A380BC012381BC01A381BC0173
:101B50002382BC01A382BC012383BC01A383BC01FB
:101B60002384BC01A384BC012385BC01A385FC00A4
:101B7000228D6A8B63F3AA01568BDA865286E6853C
:101B80004A85EFE00FFAE31305EA130600208145CA
:101B90006685330D6D41EFE0AFE85A9AE31B0DFC0B
:101BA000B2479386170085473EC6E3E676F90D47B0
:101BB0006383E900E284268463F39A005684A28654
:101BC0005286E6854A85EFE0CFF5E31105E6818C84
:101BD000229AF5F00D47B14A638CE900C25641677D
:101BE000994A63F7E6000947914A6383E900854A09
:101BF000D247639C07124257501885454A853ADC04
:101C000002DEEFE02FF4E31305E2525B41679546F5
:101C1000A1491307E7C333563B03636CC70C130C8E
:101C20004006335C8B031306002081456685EFE098
:101C30002FDF13846C1C3C18938D6C1F9304F003EE
:101C4000130D4006930BF00363F1640D03AA070024
:101C500063664D016307AA0B330A8A0333079A00B0
:101C60006364EB006371970A330A9B40A685228563
:101C70003EC6EFE00FF4D28513054400EFE06FF3AA
:101C800033D77403230E54FF3356370333773703A8
:101C90009356260093F606FCA30DC4FEA30CE4FEA7
:101CA00033F77403D2940507558F230DE4FE138791
:101CB000F4FFB356770333D63603B3F63603A30FD8
:101CC000C4FE33777703A30ED4FE9356260093F613
:101CD00006FC0507558F230FE4FE63888D02B2478B
:101CE00041049107B5F015A0C2456685EFE06FECA1
:101CF00041B58609FD1693F9F90F91FE9309F00F8E
:101D000039BF5A8AA1BFE3130AF613075005238F80
:101D1000EC1E1307A0FAA38FEC1E85460146E6854C
:101D20004A85EFE00FE0E31305D0014681454A857F
:101D3000EFE04FE1B336A00035B4E39605A615B445
:101D4000E39505A613060008BA84E37AE6B611BC4B
:101D5000EFE26FC8011185451305C002EF40106E18
:101D60008545216537140140EF40306F93078003AC
:101D700041498D448A85130504407C804AC426C2AB
:101D8000EF40703E13050440A145EF40704A130533
:101D90000440C145EF40D0491305044093050002BB
:101DA000EF401049E1778A85130504807C804AC49E
:101DB00026C2EF40503B13050480A165EF40504719
:101DC000A147E1498A85130504C07C804EC426C220
:101DD000EF4070398A85130504C0231021014AC4DD
:101DE000EF407038930700028A85130504C07C8099
:101DF0004EC426C2EF403037B70704013EC6B707CE
:101E00000002374400403ECAA1473ECC6C009D47CB
:101E1000130504C0FC8602C8EF40307785451305E2
:101E200004C0EF40707A05616FE02FBE7300203070
:101E3000EFE26FBAB74400402A891304900C9389EB
:101E400004C089454E85EF40507A05C9CA8513857F
:101E500004C0B7440040EF40D0781304900C1389BD
:101E600004C085454A85EF40507819CD138504C0DC
:101E7000EF4070771375F50F31A07D141374F40FD4
:101E800069F001456FE06FB87D141374F40F71F8B9
:101E9000CDBFEFE2EFB537140140AA84C145130569
:101EA0000440EF403039A14513050440EF4050385D
:101EB0002685BD3FC14513050440EF4070376FE0F4
:101EC0006FB5EFE2EFB237140140AA84C1451305A4
:101ED0000440EF403036A14513050440EF40503533
:101EE00013D58400B13713F5F40F9937C1451305A5
:101EF0000440EF40F0336FE0EFB1EFE26FAF371423
:101F00000140AA84C14513050440EF40B032A14509
:101F100013050440EF4010322685193FC1451305D3
:101F20000440EF40F0306FE0EFAEEFE26FAC4111F4
:101F30002A841305A00236C22EC632C47D3F2285F4
:101F4000493722463285B53F1305B0027D37B24589
:101F50002E85853F92463685AD371305C002713F09
:101F600041016FE02FABEFE2AFA8DD333714014042
:101F7000C145130504C0EF40F02B13054006EF5098
:101F8000A028C145130504C0EF40902A1305400660
:101F9000EF5080279305000213050440EF405029BD
:101FA00013054006EF5040264545813F1305800745
:101FB000EF5080251305100B89371545D93D1305C2
:101FC000C003C13D1305C003E9351305200B3537A8
:101FD0001545C1351305C0036D3D1305C003553DBF
:101FE0001305300B193F15456D351305C0035535E5
:101FF0001305C003793D1545693D1305C003513DE7
:102000001305C00379351305400BC53D0D4551350A
:102010001305A003DD351545AD3D1305000CF13D5D
:102020001305200ABD350945AD3513054008953522
:102030001305100CD9351305500CA13D1305200CC8
:102040006D3D3545B9350145A9351305300C75355C
:102050001305D0083D3D1305A002253D1305400C96
:10206000693D1305D00835351305E00E1D35130500
:10207000500C61352945313D13056003BD3D130505
:10208000800C013D1305000E8D3D49451935714504
:1020900009354145FD3B6145ED3B13053003D53B1B
:1020A0001305C002FD3313055002E533130580020A
:1020B000CD3313058002F13B13057002D93B1305A4
:1020C000F002C13B1305C003E9330145D9330D4587
:1020D000C9330D457D3B41456D3B1305100E313D28
:1020E0004945453B71457533414565336145553338
:1020F0001305D002793B13058002613B13053002C2
:10210000493B1305800271331305800259331305CF
:10211000600241331305F002AD3B1305B003953B5C
:102120000145853B0D45B5330D45A53341459533F7
:1021300013050002D9334D45C9331305A002753B81
:102140000145813B0145B1330145A1331305F0073A
:1021500089331305B00255330145253B0145153B35
:102160000145053B1305F0072D331305900271332C
:102170006FE04F8AEFE22F86328AB6897D16FD1610
:10218000C20642064111C18241823AC6AA8A2E8401
:10219000EFF0BFD932471347F7FF93140701C1800F
:1021A0006362340341016FE04F86050926854209C9
:1021B000EFF03FD113590901E36949FF05044204D7
:1021C0004180F9BF5689CDBFEFE28F823284AE865F
:1021D0002A86EFF09FD52285EFF0BFCE6FE08F8388
:1021E000EFD21FFE93940701C180BE8B8D83B3870E
:1021F000F40201113AC8FD144967C2042A8B2E84E7
:10220000B28C368D3EC69307C7DD42CA130AC7DDBE
:10221000AA8D81493ECEC18083460A0003C70C00C7
:10222000639EE60283461A0003C71C006398E60219
:10223000B38684003386B401C2064206C18241825D
:10224000A2856E85EFF07FCE93072002338CF902D2
:10225000F24701493E9CB247636BF9008509554737
:10226000130A2A02E39AE9FA05616FD03FF93307AE
:102270002C013C23814A3ECCE24733D75741D24719
:10228000058B99EB6A8511E34245EFF09FC3850A00
:10229000A147E393FAFE25A009C76A86A2856E8549
:1022A000253793871D00939D070193DD0D0133872B
:1022B0006D41E31E77FD050442044180DA8D050976
:1022C0001379F90F49BFEFD2BFEF93940701C18093
:1022D000BE8B8D83B387F40201113AC8FD144967A0
:1022E000C2042A8B2E84B28C368D3EC69307870A91
:1022F00042CA130A870AAA8D81493ECEC18083460D
:102300000A0003C70C00639EE60283461A0003C757
:102310001C006398E602B38684003386B401C206CB
:102320004206C1824182A2856E85EFF01FC09307ED
:10233000A004338CF902F24701493E9CB247636B1B
:10234000F90085091547130AAA04E39AE9FA056119
:102350006FD0DFEA33072C013C23814A3ECCE247B1
:1023600033D75741D247058B99EB6A8511E3424534
:10237000EFF03FB5850AA147E393FAFE2DA011C700
:102380006A86A2856E85EFF03FE493871D00939DDA
:10239000070193DD0D0133876D41E31D77FD0504D2
:1023A00042044180DA8D05091379F90F41BFEFD25C
:1023B0003FE193940701C180BE8B8D83B387F40204
:1023C00001113AC8FD144967C2042A8B2E84B28CCD
:1023D000368D3EC69307C72142CA130AC721AA8D6C
:1023E00081493ECEC18083460A0003C70C00639E2C
:1023F000E60283461A0003C71C006398E602B38610
:1024000084003386B401C2064206C1824182A2859D
:102410006E85EFF09FB193072008338CF902F247E5
:1024200001493E9CB247636BF90085096D47130A69
:102430002A08E39AE9FA05616FD05FDC33072C01C3
:102440003C23814A3ECCE24733D75741D247058BE4
:1024500099EB6A8511E34245EFF0BFA6850AA147D3
:10246000E393FAFE2DA011C76A86A2856E85EFF070
:10247000BFD593871D00939D070193DD0D01338721
:102480006D41E31D77FD050442044180DA8D0509A5
:102490001379F90F41BFEFD23FD31347F7FF93C62C
:1024A000F6FF13190701939906012A84AE8AB284B4
:1024B0003E8A428B1359090193D90901C14B614CE2
:1024C000930C00029C2099E36FD09FD363107A0392
:1024D0005A88C1474A87CE862686D6852285EFF060
:1024E0003FD05294420489044180E9BF631C8A01B1
:1024F0005A88E1474A87CE862686D6852285EFF020
:102500009FDCC5B7E3129AFD5A88930700024A87F9
:10251000CE862686D6852285EFF07FE9D9B7EFD221
:10252000BFCA139A07012A84AE843289B68A3A8BCD
:10253000BE89C28B135A0A01130C00148347090089
:1025400099E36FD0FFCB2285529442045E88CE87F8
:102550005A87D6864A86A6854180353F63768C00A9
:10256000D294C204C18001440909C9BFEFD25FC53A
:102570003E8D1347F7FF93C6F6FF93170701939419
:10258000060193160D010111C183C18213574D003D
:102590003ECAB387E602B2891387F5FF1306F5FF3B
:1025A000135B1D00BA965A96C20642064182C1824A
:1025B0002A893ECC2E8442CEEFF03F97138609FE47
:1025C0001376F60F931766003EC6416A93174600CE
:1025D000C16AC1803EC8CA8C014C130ACA61938A81
:1025E000CA02A14DE24713160C0141826365F60051
:1025F00005616FD0BFC0C1476317FD02C247338674
:1026000087015696834B06008149F24733D63B41FA
:10261000058A9DE3268511E25245EFF09F8A8509E0
:10262000E395B9FF35A893070002E313FDFCB24719
:10263000338687015296F9B711C62686A28566852C
:10264000EFF09FB813871C00931C070193DC0C016B
:1026500033862C41E31566FD050442044180CA8C93
:10266000050C49B7EFD25FB62A842E8AB284B68AA7
:102670003A8BC28B3E8993D91700902019E26FD014
:102680003FB822854E945E88CA875A87D686D285FF
:102690004204EFF0BFED41808504C5B7EFD25FB2D1
:1026A00041113E8A938AF6FF935718002A8D2E898E
:1026B000328CBA89C28B3EC693FCFA0F814D81449D
:1026C0001304F00F294B63958C0041016FD01FB3A9
:1026D000668785477D171377F70F63108704B35715
:1026E000FC02B3F7670313F6F70F85EC63DB5D03BA
:1026F00085EB0148DE875287CE86130600026A8585
:10270000CA85EFF0BFE6B247FD1C850D3E9D420D28
:10271000135D0D0193FCFC0F7DB7B38767035DBFAD
:1027200085440148DE875287CE8613060603C1BF63
:10273000EFD27FAAB689B28AFD167D16AE962A968A
:10274000C2064206C18241823A8BCE84EFF0EFFD91
:1027500001493384344142044180631A59036FD0E4
:10276000DFAA131A14005A9A03450A00050442040A
:102770001345F5FF1375F50FEFF0AFF103451A00A0
:1027800041801345F5FF1375F50FEFF08FF0E31A55
:1027900094FC0509CE944209C20413590901C18071
:1027A0004DBFEFD2FFA4B707410041119387E75710
:1027B0003EC44886BD5713454504B7540040C886FB
:1027C0005C870144938404801D493C00A2978C23BC
:1027D0002685EF405016930500042685EF40B0167D
:1027E0007DD90504E31324FF41016FD0BFA2EFD2CE
:1027F0003FA03705002013050500EF30D0516FD002
:102800007FA1EFD2FF9E03A5818723A8A18679052A
:102810001375F50FEFF0FFF813052003EFF07FF8C5
:1028200083A50187373501001305C509EF80F01C2A
:1028300003A501879385C11DEF105029373500206E
:102840009385C11D130505ECEF10F02E23ACA18676
:1028500079051374F50F37350100A2851305850A34
:10286000EF80B0192285EFF0DFF36FD0BF9AEFD27F
:10287000BF951389818C4111130549228145EF9041
:1028800030211384818208C04CC0130589238145FF
:10289000EF901020EF70402F9384018388C0814512
:1028A00013050921EF90D01E032A0400832A440057
:1028B000930B803E5285D685EF6040341317050197
:1028C00041833355770313094006294BA949373C07
:1028D00001003357270333756503337767033305E7
:1028E00035033A95EF70A01283258CFFAA8CEF6018
:1028F0007018EF70A01E2A86AE865285D685EF50DE
:10290000103CB737010003A6870083A6C700EF502D
:1029100040142A8A6685AE8AEF70401C2A86AE86ED
:102920005285D685EF40F01F03AA04004CC008C0B2
:102930002AC452852EC6EF60D07B4205896741814B
:1029400093870771B357F5021307400633592503E0
:10295000335575033375650333796903B387E7022C
:1029600033053503CA973E9542054181EF70200A31
:1029700083258CFF2A89EF60F00FAA855285EF60CE
:10298000B038B737010083A5C7FFEF608063CA8501
:10299000EF60802C03A8818788C042C2EF700014CA
:1029A00012482246B2462A8737350100AE87130502
:1029B0008501EF809004B737010083A507008840A8
:1029C000EF60500BEF60F07223A0A186B7370100D3
:1029D00003A6070183A6470108404C40EF50A062C0
:1029E000EF60C02123AEA18441016FD07F81EFD27F
:1029F0002FFD83C7618A4111A5C3EF30407683A7BD
:102A0000818AA907636AF504B7350100373A0020C7
:102A10009385050B13054A4AEF80503715CD4D6B52
:102A20009384818C238E01821389C183130B4BFD08
:102A3000938C0426373D01008347090025476370C6
:102A4000F70203C6618A814513054A4AEFD04FFD5C
:102A50002383018AEFF0BFE141016FD02FFA938AFF
:102A6000818385E79305C00213054A4AEF80502B06
:102A700023A0AA0009E513058D0BEF80100A8347F8
:102A8000090085072300F90045BF03A40A00930548
:102A9000C0023EC60504228523A08A00EF8050288C
:102AA00023AAA182AA8D61D9B2472147FD1793F7C6
:102AB000F70F636DF7008A07DA979C438287330626
:102AC0008540A28513850421EF70006B23A0BA0115
:102AD0007DB733068540A2851385A421F5B7294625
:102AE000A28513854422CDB72946A2851385842368
:102AF000E1BF33068540A2851385C424F1B73306B0
:102B00008540A28513856425C1B733068540A2851B
:102B100066855DBFEFD2CFED938441B31384818C82
:102B200037390100411113878400938644009305CF
:102B3000890C138641B313050421EF80D00D580092
:102B4000340070009305890C13050426EF80B00C47
:102B5000904041649307F4FF2106420613080002E7
:102B60000147894641829305800C1305400BEFF025
:102B7000FFB21307F4FF01489307000281461306D2
:102B8000E0079305800C1305400DEFF03F9ED22027
:102B90009307F4FF13080002014789469305800C50
:102BA0001305400EEFF09FAF1307F4FF01489307A2
:102BB000000281461306E0079305800C13054010C0
:102BC000EFF0DF9A92249307F4FF13080002014705
:102BD00089469305800C13054011EFF03FAC30841B
:102BE0009307F4FF13080002014789469305800C00
:102BF0000145EFF0BFAA373601001307F4FF014883
:102C000093070002FD461306460D9305800C13053D
:102C10000002EFF05F8830869307F4FF130800028C
:102C2000014789469305800C13050004EFF01FA7A8
:102C3000373601000148930700021307F4FFFD46F1
:102C40001306860D9305800C13050006EFF0BF8474
:102C500041016FD02FDC938741B3984318A1D8432B
:102C600018B19C473CA18280EFD28FD879711306AE
:102C700000028145080802C202C402C6EFD04FDA42
:102C800085451145EF30907B854513050020EF30D9
:102C9000F07A3165EF30306037150140C9474C009C
:102CA000130505807C8202C6EF30F04B37240140CB
:102CB000B7070E003ECE0C088547130504402302DB
:102CC000F10202C802CA02CC02D0EF30D01B1305B9
:102CD00004408545EF3090208327444037070005A6
:102CE00013040440D98F5CC045616FD0AFD2EFD2DE
:102CF0002FD037240140AA85854613050440054698
:102D0000EF30D01EC147232EF44213050440A147E3
:102D10002326F4442A8489452285EF30B02865DDD6
:102D2000B727014003A5C744420541816FD08FCE2C
:102D3000EFD20FCC0545EFF09FFB1384E1830AA08F
:102D40001145EFF0DFFA16202390A184138421842B
:102D50001307F07C938401841C206360D70895E3FB
:102D600083C76184ADE383C7418493C7170023827F
:102D7000F184373501001305C50DEF80005A8547F2
:102D80001CA09620138431841307F07C1C20636AF6
:102D9000D70485EB373501001305450EEF80E0576A
:102DA00085471CA083C761849306000F1306001497
:102DB00085072383F18441677D1781450145EFF045
:102DC0006FBB6FD02FC50547E395E7FA83C75184E2
:102DD00093C71700A382F18469BFC5D723000400FD
:102DE0004DB7E5D323000400E9BFEFD2EFBD397141
:102DF00001494DC93689AA8A3A8A32C62E84EF80A3
:102E0000A0742A8B8144B24663460400AA846353AB
:102E1000A400A284A68963D32401CA8963533B0119
:102E2000DA893799030013068997D1452808EF807E
:102E30006053D286130689972A84D1456810EF80A3
:102E40006052330A8B002A9AAA8B13051A00EF707E
:102E5000202F2A8921C92686D685EF70E031228667
:102E60002C0833059900EF7020312694338C99405B
:102E70006286B3859A0033058900EF70E02F629473
:102E80005E866C1033058900EF70002F5E94330668
:102E90003B41B3853A01330589004A9AEF70C02D52
:102EA00023000A004A8521616FD08FB5EFD24FB45D
:102EB000EFF06F8B41641307F4FF9306000F1306C6
:102EC000001481450145EFF0EFAA4D671307C70EC7
:102ED0009306800C1306001481450145EFF05F85D1
:102EE0001307F4FF9306000F1306001481450145F4
:102EF000EFF04FA86FD00FB2EFD28FAF83C76184CE
:102F000005476389E70291C709476386E7046FD0E5
:102F10006FB003C74184B70700209387873E94238F
:102F2000E387E6FE98A301E7EF005003CDB7EF007B
:102F30007009F1BF03C75184B70700209387973EFC
:102F40009423E386E6FC98A301E7EF00300EC1B7B7
:102F5000EF0050146DBFEF00006EEFF0BFBBEF004D
:102F6000607C1387718483C6818510233E84630D42
:102F7000D60014A341677D179306000F13060014B3
:102F800081450145EFF00F9F03C781858547631594
:102F9000F700EF00B016A5BFEF00D01F8DBF4111A5
:102FA00022C6374400409305505213050440EF40B9
:102FB000E01A25C113050440EF40601803C791844F
:102FC000A9461375F50F9387918463E4E604B796D9
:102FD00003000A079386C68E369718430287114767
:102FE0006319E502054729A031476312E502094745
:102FF00098A305A00947631CE5000D47D5BF13073B
:1030000000036316E5001147E5B7154775D1238026
:103010000700374500409305505213050540EF4027
:10302000A01732444101730020301147E311E5FE3F
:1030300019477DBF1D474DDDD9BF2386A184214798
:1030400045BFA386A184254765B72387A184294767
:1030500045B723800700938781849423A387A184A5
:103060000947E391E6F851BFEFD2EF9641110144D1
:10307000938401B483C7A184636DF4003795030082
:1030800013050593EF8060291305D003EFF06FF16E
:10309000A1A0931524001146A6951385C184EF3095
:1030A000205315CD6800EFF01FBBB707002008863E
:1030B000938787023E949307C0033305F5029C86ED
:1030C0000C201386C11D3E951C8793B7E70193C75B
:1030D00017003E95EF10A01541016FD00F93050426
:1030E0001374F40F41BFEFD2AF901384A1841C205E
:1030F000938501B48A071146BE951385C184EF30CC
:10310000604B1C20B704002093848402A6978C2374
:103110003795030013058591EF80200E1C201305C1
:10312000E00385071CA023840184EFF08FE71C20B7
:10313000373501001305850ABE9403C4F4FF7904F2
:103140001374F40FA285EF80400B2285EFF06FE53A
:103150006FD04F8CEFD2CF89938781849823854697
:103160006312D70223800700EFF01FF037350020ED
:103170009385C11D130505ECEF10E01B23ACA18660
:103180006FD04F898D46E31DD7FE23800700EFF0F7
:103190009FF5FDB7EFD2CF85370500201305450316
:1031A000EF80A00583A741818847EF60D0541305C5
:1031B000803EEF4060053705002013050504EF80D1
:1031C000C00383A741818847EF60F0521305803E1A
:1031D000EF4080033705002013050505EF80E0016F
:1031E00083A741818847EF6010511305803EEF406F
:1031F000A0013705002013050506EF80000083A716
:1032000041818847EF60304F1305803EEF30D07F1B
:103210001305803EEF30507F3705002013058508E9
:10322000EF70B07D83A741818847EF60D04C1305D4
:10323000803EEF30707D370500201305C513EF7019
:10324000D07B83A741818847EF60F04A1305803E19
:10325000EF30907B1305803EEF30107B3705002068
:1032600013058516EF70707983A741818847EF6059
:1032700090481305803EEF3030791305803EEF30E3
:10328000B0786FC03FF9EFC21FF583C74189411184
:10329000CDCBEF20D06C83A78189A9076363F50AA2
:1032A000B795030037340020938585961305441A9B
:1032B000EF80C02DB795030070009385059702C677
:1032C000EF806015B2472547FD176363F706379710
:1032D00003008A0713070794BA979C438287B79520
:1032E00003009385C5971305441AEF80202A03C66F
:1032F000A184B707002093848702B7950300269620
:1033000093858598EF80201183C7A18437950300AA
:1033100013058599A6979823130707FD98A3EF70C7
:10332000D07F1305C003EFF0CFC709472384E184A2
:1033300003C6418981451305441AEFC07FEE238AF5
:10334000018841016FC07FECEF00B067D5B7B7953A
:1033500003009385859A1305441AEF802023B7094B
:103360000020B7950300938651801386C93E93854C
:10337000059BEF80400A0387C93E93071003E319BA
:10338000F7FA938AC93E83841A00373A002013075C
:103390000AEC938704FDB91493F4F40F8A073735C8
:1033A0000100BA97A68505471305850A98C3EF70F3
:1033B000D0642685EFF0EFBE13058002EFF06FBEFC
:1033C00083851A00379503001305059CEF70F062A2
:1033D0009385C11D13050AEC2386093EEF00B075E5
:1033E00023ACA186B1B7B79503009385859D1305DE
:1033F000441AEF80A019B79503001306B100938516
:10340000059EA3050100EF8000018C853795030020
:103410001305C59EEF70705E9C8513071003639CB7
:10342000E700379503001305859FEF70106F014586
:10343000EF00A075F5BD130720036394E700054571
:10344000C5BF1307300301456387E7001307400337
:103450006396E7000545EF004076D9BD130750039A
:103460001305B0046388E70013076003E392E7ECF9
:103470001305C004EFF0EFB265BDEFF08FB84DBD9E
:10348000EFC21FD741118545214502C202C402C6C1
:10349000EF30C07A8567371401407C82D1473EC641
:1034A0004C008D47130504C03EC4EF30C04B0546A9
:1034B0008565130504C0EF3020581305C05DEF305B
:1034C000B05441016FC01FD5EFC21FD0B7140140E7
:1034D000411101468565138504C002C4230601001D
:1034E000EF3080555145EF303052054685651385E4
:1034F00004C0EF3060547945EF30B04D85651385D9
:1035000004C0EF304052854705446305F5109384AD
:1035100004C085652685EF300051E31C85FE130548
:10352000A005B7190140EF30D04A13098100930A72
:10353000D100938909C0054A2144834409008604C7
:1035400093F4F40F2300990085654E85EF30A04D6C
:10355000E30C45FF85654E85EF30E04CE31C45FFED
:1035600013058002EF30F04685654E85EF30A04BA5
:103570006316450193E41400230099007D1413742D
:10358000F40F45FC0509E3992AFB834A81008884EE
:10359000034AA1008485B387AA001886D297A6970C
:1035A0006399E708EF60403AB799030083A509A043
:1035B000138B0185EF50F020AA8B5685EF60C03841
:1035C000AA855E85EF5040692322AB005285EF60EB
:1035D000A03793978401E1872A8A1389018563DFE5
:1035E000070213F5F407EF60203683A509A0EF501A
:1035F000501DD285EF504066B70700803D8DB7144F
:1036000001402320A900938404C085652685EF30FE
:10361000804165DD228541016FC09FBE2685EF6038
:10362000A03283A509A0EF50D019D285EF50C06217
:10363000F9B70944C5B7EFC2BFBB0111EFF0DFE82E
:10364000138401850840EF60A0242A8948400008BF
:10365000EF6000242A862AC637950300CA85130521
:1036600045A0EF709039B7472048938747A53EC8DB
:103670009305A0039307A0032285FC82EF70506A94
:103680009305A003AA842285EF70306D32478145EF
:1036900081C4818C93851400814601C5018D9306F8
:1036A00015004A862285EFF04FF4AA842DC9B7672A
:1036B0007273938707573ECCB7773A00416493877C
:1036C000F7E6B16601481307F4FF938606C4300895
:1036D0009305500A3ECE014593070002EFE09FF8A4
:1036E000EF00704A13160501130800029307F4FF58
:1036F0000147854641829305500A13050007EFE014
:10370000FFF90148930700021307F4FF9306007EB8
:1037100026869305500A1305A00AEFE0BFF4056161
:103720006FC05FAFEFC2DFAC03D601864164130701
:10373000F4FF0148C147FD4681450145EFE01FF612
:1037400003D6C1850148C1471307F4FFFD468145F3
:1037500013054006EFE09FF46FC0DFABEFC25FA937
:103760004164379603001307F4FF014893070002F2
:10377000FD46130646A8814513058002EFE03FDAB7
:1037800037960300130704FE014893070002FD4625
:10379000130646A99305000613058002EFE03FD803
:1037A000379603000148930700021307F4FFFD4614
:1037B000130606AA9305000813058002EFE03FD622
:1037C0006FC05FA5EFC2DFA2416437960300130705
:1037D000F4FF014893070002FD46130646A8814501
:1037E00013058002EFE0BFD3379603001307F4FF01
:1037F000014893070002FD46130646A993050006FB
:1038000013058002EFE0BFD137960300014893070C
:103810000002130704FEFD46130606AA93050008DE
:1038200013058002EFE0BFCF6FC0DF9EEFC25F9C49
:103830004164379603001307F4FF01489307000221
:10384000FD461306C6AA814513058002EFE03FCD71
:1038500037960300130704FE014893070002FD4654
:103860001306C6AB9305000613058002EFE03FCBBD
:10387000379603000148930700021307F4FFFD4643
:10388000130646AC9305000813058002EFE03FC91C
:103890006FC05F98EFC2DF9541643796030013074E
:1038A000F4FF014893070002FD461306C6AA8145AE
:1038B00013058002EFE0BFC6379603001307F4FF3D
:1038C000014893070002FD461306C6AB93050006A8
:1038D00013058002EFE0BFC4379603000148930749
:1038E0000002130704FEFD46130646AC93050008CC
:1038F00013058002EFE0BFC26FC0DF91EFC25F8FA0
:1039000041643796030041111307F4FF0148930700
:103910000002FD461306C6AC9305200313052003E1
:10392000EFE07FB7B79503002546938585AD480046
:10393000EF6090041307F4FF500001489307000262
:10394000FD46930540060145EFE0FFB403D68187AD
:103950009307F4FF130800027D4785469305400650
:1039600013050008EFE09FD3F177938757ED7C8034
:103970000A860148930700021307F4FFFD469305EA
:1039800040061305000A23010100EFE0DFB041010A
:103990006FC05F88EFC2DF85416437960300411135
:1039A0001307F4FF014893070002FD46130646AED5
:1039B0009305200313052003EFE0FFADB795030047
:1039C0002546938585AD4800EF60007B1307F4FF23
:1039D0005000014893070002FD469305400601454B
:1039E000EFE07FAB03D681879307F4FF1308000253
:1039F0007D4785469305400613050008EFE01FCA82
:103A0000F177938757ED7C800A860148930700027F
:103A10001307F4FFFD46930540061305000A230132
:103A20000100EFE05FA741016FC0CFFE83A7818750
:103A300083A50186FD17379703001306C7AE93963B
:103A40004700369608426375B5049307C7AE5842DF
:103A500063F0E50483A5C18508461387C1856371BA
:103A6000B502504663FEC500138681850C2289E9A4
:103A7000EFC20FF885471CA2EFE0BFD86FC08FF9E7
:103A8000B6971843944763F5E600DC47636BF7008D
:103A900093878185942305476395E600238007007B
:103AA00082808280EFC2CFF4011185450545EF3059
:103AB000C01A9307F0053EC299679387771A4C00A6
:103AC000370500403EC4EF30E032C16793870706F8
:103AD0003EC88D679387470D0C0837050040FC836F
:103AE000231C0100EF30A03BA14537050040EF301B
:103AF00040520C0837050040EF308042A1453705A1
:103B00000040EF30E051854537050040EF30C04EB2
:103B1000854537050040EF30804B05616FC08FEF62
:103B2000EFC20FED411185451145EF3020118D4752
:103B30007C8237150140E1473EC64C008D47130596
:103B400005803EC4EF20306241016FC0AFECEFC290
:103B50002FEA411185452145EF30400E93070004BF
:103B6000371401407C82C1473EC64C008D47130587
:103B700004C03EC4EF20305F93050004130504C069
:103B8000EF20506B41016FC0EFE8EFC26FE609CD47
:103B9000379503001305C5B1EF20D0041305800449
:103BA000EFE03FC06FC00FE737950300130545B244
:103BB000EF20500313057004E5B7EFC26FE309CDA2
:103BC000379503001305C5B2EF20D0011305A004FB
:103BD000EFE03FBD6FC00FE413059004EFE07FBC42
:103BE00037950300130545B3EF20C07FE5B7EFC25B
:103BF0002FE019472382E186EFE07FBF379503006E
:103C00001305C5B3EF706071EFF09F87EFF08FD8A9
:103C1000EFF0CFA9EFF0DFF0EFF07FF3EFF0CF841C
:103C2000C5206FC02FDFEFC20FDBB70400200144B7
:103C30009384441AB14983C741866364F4006FC01A
:103C4000CFDCEF20C051B3073403A697D843944785
:103C500036976375A70088C79C4382970504137441
:103C6000F40FD1BFEFC2CFD837340020930784F0D0
:103C700083C767050547130484F06384E706B9CB5F
:103C800009476385E7060D476387E7068345C40256
:103C9000379503001305C502EF7020568355440580
:103CA0003795030013058504EF7020556C443C44A0
:103CB00037950300B205D183DD8D13058505EF70BF
:103CC000C0532C483795030013050507EF70E052E9
:103CD0006FC04FD437950300130505FDEF70E06307
:103CE00075B737950300130585FECDBF37950300E3
:103CF00013050500E5B73795030013058501F9BFE6
:103D0000EFC28FCC9387C1FC130720109AA323A284
:103D1000070023A60700AE8937940300EF10C00008
:103D20006313051CEFF01FF4379503001305C5E47A
:103D3000EF70A05EB737002003D5C7F537940300B6
:103D40004205EF00F026AA851305C4E0EF70E04AB3
:103D5000EF106018AA851305C4E0EF70004A05450E
:103D6000EF10C040AA851305C4E0EF700049B79476
:103D700003000546938584E51385C1D9EFD02FB0A4
:103D800023A6A1861384C18619E537950300130580
:103D9000C5E5EF7080581840B547631CF7043795A8
:103DA0000300130585E7EF7040579385C1FC930628
:103DB00000201386C1FD138584E5EFD0BF8A08C0BB
:103DC000AA8563190514379503001305C5E8EF703C
:103DD000C0540546938584E51385C1D9EFD02FAA39
:103DE00008C0631B0510379503001305C5E5EF7088
:103DF000C052B79A0300294693858AEF138541B7CD
:103E0000EFD00FAD08C0630C051037950300130504
:103E100085F0EF70805037950300130585F3EF7040
:103E2000C04FB70900209385C91E938681862D4611
:103E3000138541B7EFD08FDD08C001499389C91EB2
:103E4000B79B03002D4BB38729019023CA851385A7
:103E50008BF50509EF70603AE31769FF1C4099C7BD
:103E6000379503001305C5F6EF70204B138541B756
:103E7000EFD04FFD054693858AEF138541B7EFD00C
:103E80002FA508C019C5379503001305C5F7EF70B6
:103E9000C04837950300130505F9EF700048938675
:103EA00081862D46938581B6138541B7EFD06FBFCC
:103EB00008C019C537950300130505FBEF70E045F1
:103EC0000144138981B6B7990300AD44B307890053
:103ED0009023A2851385C9FB0504EF700032E31718
:103EE00094FE6FC0EFB11305C4E3EF7000431305F8
:103EF0004006EF3060311DB5379503001305C5EA64
:103F0000EF70A0410C4037950300130545ECEF70AE
:103F1000C02EC5B537950300130545EDCDBF3795C8
:103F200003001305C5F1F5B5EFC20FAA130101CDCA
:103F3000AE84B79503002A892946938545B42802A3
:103F4000EFD00F9911C92A84AA853795030013056C
:103F500045B5EF70802A79A8379503001305C5B7DA
:103F6000EF70A03BB7950300938585B92800EF70EB
:103F7000A05C8967CA9703A6070DB79503009385D0
:103F800045BB13052102EF70A0442A843C0069055B
:103F900037960300B7950300130646BC938505BD0D
:103FA0003E95EF70E0423C0013051403B795030003
:103FB000938505BE3E95EF7020583C00130514050F
:103FC000B7950300938545C03E95EF70E056130604
:103FD000540754002C002802EFD04FC32A8405C197
:103FE000AA85379503001305C5C2EF70002128028A
:103FF000EFD04FE52285130101336FC06FA0B79555
:104000000300938505C52800EF700053B7950300A2
:10401000938545C613059101EF700052814A130440
:10402000B003130B8002379C0300A94B338A6A0349
:1040300081494A9A03270A00635CE0003C0033850B
:104040008700CE86568693050CC9EF7060382A9497
:104050008509110AE39079FF850AE3993AFD3C004E
:10406000B795030033858700938585D3EF70C04CE7
:104070001306240054002C002802EFD02FB92A8404
:1040800019C5AA85379503001305C5CAB9BFB795E9
:104090000300938505CD2800EF70004AB795030013
:1040A000938505CE13057101EF700049B7950300A4
:1040B000938505D1C800EF7020488149130460063C
:1040C000130AC003B79A0300130B800C8DE06353EF
:1040D0008006228654002C002802EFD02FB32A84B9
:1040E00031C9AA8537950300130505D8FDBDD44015
:1040F0009C44984033C64603280022959385CAD332
:104100008509B3E646032106EF70802C2A94C44447
:10411000E35E8BFA228654002C002802EFD00FAF0A
:104120002A8419C5AA85379503001305C5D575BD21
:10413000014469BFB7950300938585DA2800EF70C5
:10414000A03FB79403004E86938584DB130551018D
:10415000EF7000281304D5003D243C00B795030000
:104160002A86938585DC33858700EF706026896712
:104170003E990326090D2A943C00B7950300338528
:1041800087009385C5DDEF70A0243306A40054009A
:104190002C002802EFD08FA72A8419C5AA8537954D
:1041A0000300130505DF91B52802EFD0AFC937959D
:1041B0000300130545E1EF704016CE85138584DBBF
:1041C00049BBEFC2EF823795030013058508EF70F6
:1041D000C01483A54187371500201305C5DEEFF015
:1041E000BFD409E9379503001305450AEF70E012C3
:1041F0006FC04F82AA85379503001305850BEF60CA
:10420000D07FFDB701A001A0EFB29FFE41112A842B
:1042100041452EC632C4EF50B072B245224600C1AD
:104220004CC110C52326050041016FB0BFFEEFB29F
:104230009FFA03A901872E84AA89B2842E86AA85B3
:104240004A85EFF07FFC93874187984388C3A9474D
:10425000B307F90258C5371700201307C7DE0966F0
:104260003A967945A2978A07BA979443850694C3EC
:104270008327060D938647068A06BA9623A0360141
:10428000938617009387C7448A072328D60CBA97CA
:1042900013162400269680C31C42130700F08507DE
:1042A0001CC22392E180EFE0CFCF1305E401137528
:1042B000F50FEFE00FCF379503002286CA8513056F
:1042C000050FEF60907305456FB03FF4EFB2BFF09C
:1042D000AA89411103A5418701448144138941877B
:1042E0001DE191CC93972900BE953795030023A03B
:1042F00005002686CE8513050511EF601070268512
:1043000041016FB09FF018455C45631D370111EC0A
:104310002320F9002EC6EF5050638504B24501C832
:104320005C4422852A843E8565BF5CC4E5B783274B
:1043300009000145C5BFEFB2BFEB03A601870544E5
:1043400093840187A946B307C400B3E7D702139744
:1043500027003308E50003280800634300032E9775
:104360001843634FE0000504E31FD4FC37950300B6
:104370001305C50DEF60707A9C408507B3E787028F
:104380003E856FB03FE983A74187014591E3828075
:104390000505DC47E5BFEFB2BFE50945EF20606AE0
:1043A000EF103043EF209060716513050520EF207A
:1043B0001069EF107063EF10506CEF10507A379562
:1043C000030013058512EF20E001EF20A00CEF1091
:1043D000F052EFF02FEDEFF09F81EFF0DF84F5BFAB
:1043E000378701405C4393F707F05D8D48C38280B7
:1043F00083C8C18783A70188B7350020938685EFDE
:10440000231AF5049E229842230B15051398870062
:10441000A1833368F8009357870113F6F70F898754
:10442000BD8B1CB1DC4241832312050113D8070167
:10443000135366001378F80F0D8A38B113D787012C
:1044400030A1120713564800518F13D687007AA166
:104450001377F60F2300650013537700A30465005C
:10446000135366401373130023056500135356401E
:1044700013731300A3056500135346401373130011
:104480001378F8002306650023040501A306050040
:1044900005439446938585EF637513010D43639936
:1044A000682013D786019378F70F8A0713D3680023
:1044B00093F7C73FB3E7670037030400130303C054
:1044C0002A06337666000563130303C0337666005D
:1044D0000D87D18F1D8B13D6060158A91377F60FC0
:1044E000158378A9135726401D8B78B913D78600FA
:1044F00093F878001377F70F0606A30A1501198AB7
:10450000935877003366160110AD85480906339637
:10451000C8001CC9850733980801B388C70223283F
:104520000505B327F6021356F841B3870703330690
:104530001603B2973386080333B8080330C5C29711
:104540007CC593576740858B1CBD060793F7F60F14
:1045500093D677001377E707558F38ADD84593F793
:10456000F7073CBD9357870193D6770054AD93D698
:1045700057408D8A54BD93D627409D8A74AD93567B
:10458000070113F6F60F8A0793556600B18BCD8F9E
:1045900095867CBD858A935787002300D502058ABE
:1045A00093F6F70F2301C50213D67600A301C502C7
:1045B00013D66740058A2302C50213D65740058AE1
:1045C000A302C50213D64740058A2303C502373626
:1045D0000020130686EE8D8A2304D50214428987B3
:1045E0008D8BA303F5021377F70F93D7860123066C
:1045F000F502058393D70601A304E50293F7F70FAD
:1046000013D786001377F70FA207D98F7EB55C42C8
:10461000E206416813D787001377F70F558F93D6BB
:104620008701C206558F93D607017D18A206B3F6FF
:104630000601558F144618D9230AF502584693D718
:104640008601A30AF5021396860093D706013378F4
:104650000601E20713568701B3E70701D18FA206CF
:104660003706FF00F18ED58F0346C5031CDD935737
:10467000070193F6F70F9182D18E230ED50285663E
:10468000938606F0A207F58F9356870093F6F60FF0
:104690008545D58F1377F70F2305B5027EBDA3009F
:1046A000050205832300E504A300B50401458280CB
:1046B0000946E398C8E813D7860113D60601137696
:1046C000F60F2207518FC20737063F00F18FD98FAF
:1046D0001CC9850713D6D700CE0713D786003CC563
:1046E000930700201377F70F70C53CC999BDEFB24F
:1046F0003FB04164FD547D14631994001305F05FCD
:10470000EF20206801456FB0FFB013050008EF20CF
:10471000606675D165F40D45FDB7EFB27FAD4167B9
:104720008147FD56378601407D17631ED70013F77A
:10473000470019EF93F70704014499CF13050004CC
:10474000EF20206411A85C5A93F55704F1DD65F35E
:104750001145EF2000630D4422856FB0BFABEFB26F
:104760003FA9AA84378401405C5893F75704EDDFD2
:104770001145EF20206019C51145EF2080600D45DF
:104780006FB05FA90545EF20E05E11C50545EF203C
:10479000405F0545F5B71C484145E39397FE9307F5
:1047A000F05F1CDC4848B7E7FFFDA1077D8DC9BF5E
:1047B000EFB21FA437370020930707F69D46D4C3F6
:1047C0009306000488C394C7130507F693060040B8
:1047D00023A6070094CBEF2020541D45EFF03FF8AF
:1047E0006FB05FA3EFB2DFA0378401405C5893F74E
:1047F0000710B5C703C74188854713848188631DA7
:10480000F70437350020930705F63147D8C313075F
:10481000000498C7130505F61307004023A00700FE
:1048200023A6070098CBEF20204F3145EFF03FF350
:1048300008C0B7870140985FD176938656CC13673E
:10484000071098DFD85F758FD8DF0547A382E1880E
:104850001C403E856FB01F9C23200400D9BF094532
:10486000EF20405119CD0945EF20A0515C5C5177F4
:10487000130757CCF98F5CDC094723A4E1888947EB
:10488000C9BF2145EF20004F19CD2145EF20604FD2
:104890005C5C5177130757CCF98F5CDC114723A47C
:1048A000E18891477DB713050002EF20A04C05C1B8
:1048B00013050002EF20E04C5C5C5177130757CCE6
:1048C000F98F5CDC194723A4E188994759B7414522
:1048D000EF20404A19CD4145EF20A04A5C5C51775A
:1048E000130757CCF98F5CDC154723A4E188954763
:1048F0008DB713050020EF20E047814739D9130514
:104900000020EF2000485C5C5177130757CCF98FEB
:104910005CDC1D4723A4E1889D4725BFEFF09FEC99
:1049200073002030EFB2DF8C378701405C5B93F778
:104930005704EDDF1145EF20E04319C51145EF2085
:1049400040440D456FB01F8D1305F05FEF206043AD
:104950000145CDBFEFB25F87373500209307C518FB
:10496000130720FB1305C518D8AB23A0070023A20B
:10497000070023A4070023A6070023A80700EF20B1
:10498000A0320D45EF204036373900200545EF2095
:1049900040349304A004130409F6130A0040CA89A2
:1049A000228523200400232204002324040023263C
:1049B000040023284401EF202036EFF05FD319C50F
:1049C000FD1493F4F40FE9FC6FB09F839307A01AD2
:1049D0001CC0A1475CC0930700041CC4130509F662
:1049E000930700401CC823260400EF20E032EFF0BC
:1049F000DFD2814411E50547238EE186B7040040EC
:104A0000930770035CC0930700041CC4138509F668
:104A1000930700401CC82320040023260400EF2035
:104A2000A02F13057003EFF09FD3014959E5370A12
:104A3000108033EA4401C164930B7003930A0004AD
:104A4000130B0040130C9002FD14138509F623206C
:104A50000400232274012324540123260400232864
:104A60006401EF20602B13057003EFF05FCF29FD89
:104A7000138509F6232044012322840123245401B1
:104A80002326040023286401EF200029EFF09FE98A
:104A900005FDB7870140DC4B050963C60700E31637
:104AA00099FA6D4515B7E30E99FE13971700E35D6C
:104AB00007F00947238EE18601BFC164378AFF8072
:104AC000854A130B0004930B0040378C0140FD1402
:104AD000138509F623204401232254012324640171
:104AE0002326040023287401EF200023EFF09FE326
:104AF000E31C05EC83274C01050963C50700E31996
:104B000099FC45B7E30F99F80D476DB7EFB24FEE3B
:104B100041678147FD56378601407D176312D702F2
:104B2000918B85E70545EF20E024014409C5054543
:104B3000EF20202505441305F05FEF20802411A805
:104B40005C5A93F55704F1D961FF1145EF206023BA
:104B50000D4422856FB00FECEFB28FE92A89AE8445
:104B6000378401405C5893F75704EDDF1145EF207F
:104B7000602019C51145EF20C0200D456FB08FE9A9
:104B80000545EF20201F11C50545EF20801F054575
:104B9000F5B71C48638427014145CDB71305F05F85
:104BA000EF20201E5C4839677D8F09E7C1839EA0F6
:104BB0000145E9B7139727014D45E34107FC1397DA
:104BC0001701E34B07FC139707010145E35807FA68
:104BD0003D456DB7EFB2CFE1854741117C87EF20AE
:104BE000C011930750026303050E03C7C1879147A5
:104BF0001384C1876308F70437350020930705F64F
:104C00000947D8C31307000C98C7130505F6130707
:104C1000004023A0070023A6070098CBEF20C00F79
:104C2000EFF0DFEEAA875DE137870140544BB737DD
:104C30000020938787EE94C3144FD4C3544F94C776
:104C40001853D8C71C2009476377F70419476384B2
:104C5000E70414208D47639AF60238873735002021
:104C6000930705F6420798C31307000498C7130576
:104C700005F613070040D4C323A6070098CBEF2006
:104C8000A009EFF0BFE8AA8731E11820914763132C
:104C9000F704814725A837350020930705F60D470F
:104CA000D8C31307000498C7130505F6130700407F
:104CB00023A0070023A6070098CBEF20E00593056B
:104CC000E1000D45EFF05FE9AA8741D53E8541013E
:104CD0006FB04FD438873735002023A0E188930781
:104CE00005F6420798C32547D8C31307000C98C799
:104CF000130505F61307004023A6070098CBEF2005
:104D0000A001EFF0BFE0AA8771F1B7860140D04A59
:104D100037370020130787EF10C3904E50C3D04E93
:104D200010C7945254C75DB7EFB28FCC01118545BF
:104D300013050003EF109070854513052040EF1018
:104D4000106E8967938707F0E1440D444C083715CE
:104D50000140FC8226CE22CCEF10F04037150140F6
:104D600091474C0813050540FC8226CE22CCEF105B
:104D7000903FEF107070930710047C8668008547A1
:104D80003EC823070100EF10304CEFF0BFBC1DE917
:104D9000EFF05FE405E937350020130585F0EFF00B
:104DA0002FE50DE1B737002003C7E7F58547194523
:104DB00063F3E7000545EFF0AFE205472383E180A9
:104DC000014531A003C7C1878D47E30DF7FCB787C5
:104DD0000140D843F9769386F67F758FD8C3D843C0
:104DE000D8C305616FB00FC3EFB28FC003A70188AE
:104DF000AA8437350020930705F6420798C3354744
:104E00004111D8C31307000498C702C41307004018
:104E1000130505F698CB23A6070002C6EF10D06F46
:104E2000B7870140DC5B378701403EC6B24793F746
:104E3000570481CF0545EF10F07319C90545EF10F0
:104E40005074054541016FB0EFBC5C5B3EC6F9BFD5
:104E50001145EF10307211C51145EF1090720D45DC
:104E6000D5B7378401401848B5474145E31CF7FCE6
:104E70001305F05FEF10F0705C4801453EC4A24797
:104E8000A583BD8B9CA07DBF21C5EFB26FB603A7E4
:104E900001882A8437350020930705F6420798C316
:104EA0003547D8C31307000498C7130505F6130741
:104EB000004023A6070098CBEF1010663545EFF0B1
:104EC0001F8A09E5B7870140DC4B1CC06FB08FB467
:104ED000130560028280EFB2AFB14111680002C6D3
:104EE000EFF09FFA9307F00F01E5B247A583BD8B62
:104EF0003E8541016FB00FB2EFB20FAD37390020E0
:104F0000130409F6C1472A8BA14B130509F6930A2E
:104F10000004130A0040AE895CC0232074012324DE
:104F200054012326040023284401EF10F05E41457C
:104F3000EFF0FF82AA846310051093077003130536
:104F400009F6420B5CC0232064012324540123266C
:104F5000040023284401EF10305C13057003EFF0C8
:104F60001F80AA846319050C373500209307451765
:104F70007D5798C31307000398C70947D8C713057F
:104F800045170547D8CB23A2770123A80700EF10C8
:104F9000D05A93073003130509F65CC023200400A0
:104FA000232454012326040023284401EF10D05663
:104FB00013053003EFF0AFFAAA8435EDB7470F00C1
:104FC00037870140938707245CD337890140379A9C
:104FD0000300032449031374A4622DE0EF1050581A
:104FE000AA851305CAE0EF60402137052000EF10C5
:104FF000705865D1EF10D0562A89B78A014083A72F
:105000004A0393F7A76285E3EF109055AA8513052D
:10501000CAE0EF60801E37052000EF10B05565D163
:10502000EF1010542A842145EF10D05419C921459E
:10503000EF103055914426856FB08F9C0144014993
:10504000DDB70945EF10105311C50945EF10705336
:105050008944D5B713050002EF10D05119C51305C7
:105060000002EF1010529944F9B713050020EF1019
:10507000705019C513050020EF10B0509D4465BF56
:105080001305F05FEF10F04F935789011317890153
:10509000931689003706FF005D8FF18E558FC1662C
:1050A000938606F0135989003379D90033692701B3
:1050B0009317840113578401D98F13178400718FBC
:1050C0002180D98F758C5D8C23A2290123A08900B2
:1050D0009DB7EFB24F90411102C402C6894911E158
:1050E000AA89B7870140DC4B394513976700634CA9
:1050F0000706938401888A202C00EFF0FFDF25E566
:10510000B247130550021397D700635E07049C4013
:1051100037390020130409F6C2071CC0130509F62D
:1051200093077003130A0004930400405CC0232417
:1051300044012326040004C8EF10103E1305700339
:10514000EFF0EFE10DE19947130509F62320340153
:105150005CC0232444012326040004C8EF10D03B84
:105160001945EFF0CFDF41016FB02F8A83C7C187A8
:105170000D476383E704EFB2AF8709472A840145EF
:10518000636AF70285471305700263E587021375AA
:10519000F40FEFF01FF419EDB7870140D843F9760B
:1051A0009386F67F758FD8C3D8432E04598CC0C31D
:1051B000D843D8C36FB00F86130570028280814731
:1051C00005476314E5003E8582808507058193F7D6
:1051D000F70FC5BFEFB2CF8139712A89AE84094577
:1051E00085453704024032C6EF107023130544444E
:1051F000EF10E05B130544448145EF108075B787DD
:105200000140938707083ECA930700083ED49307DE
:10521000002032463ED68567938707803ED84C08EB
:10522000896713054444898032CE3EDC4ACC26D0BF
:1052300002D202DA02DEEF10406E854513054444C7
:10524000EF10207121616FA0FFFCEFA27FF74111E9
:1052500019E513046002228541016FA03FFAB78768
:10526000014023A6070203C7C18789472A89AE8A5E
:10527000368A6319F7005E0693DA9500B36A560121
:10528000130A0020B73C002093844C17FD57854B30
:1052900013854C179CC023A4040023A2040023AA56
:1052A000740123A6040023A80400378B0140EF10EB
:1052B000D02883274B01394413976700E34D07F843
:1052C0009307FAFF1396070141829306F07FE3E20A
:1052D000C6F8B3F74701B5FF5285EFF05FEE373CF4
:1052E000002093090CF6C1462AC6930D000413054D
:1052F0000CF6130D004023A2D90023A0490123A4DA
:10530000B90123A6090023A8A901EF10F020414507
:10531000EFF0EFC42A8421F1B24713854C1723A282
:10532000440192079CC4FD579CC08947DCC423AA52
:10533000740123A80400EF105020C54713050CF694
:1053400023A2F90023A0590123A4B90123A609002F
:1053500023A8A901EF10501C4545EFF04FC02A8447
:10536000E31B05EE83C76180C5C7E39677EF01466F
:105370004A85D285EFF01FE69387818823A0070036
:105380002382018893875188238007008327CB03DA
:1053900005451389518893E7A732232EFB02EF10AE
:1053A00070167D5793878188370602408326064012
:1053B0009395260163C2050C8346090093F6F60F08
:1053C000C5EE9443D5EA29C37D17CDB72165EF100B
:1053D000701A15C9CA871309090203A7090891079A
:1053E00023AEE7FEE31BF9FE9304FAFF83A749030C
:1053F00093F7A762E1DF2145EF10D01705C12145E2
:10540000EF10301811A099E01144B1B5FD14F9BFA7
:10541000FD54B7890140370A8000C9BF0945EF1024
:10542000701511C50945EF10D01509442DB51305A8
:105430000002EF10301419C513050002EF107014AC
:10544000194411BD13050020EF10D01201CD130532
:105450000020EF1010131D44FDBBEF10701023202F
:10546000A900110937052000EF10D0107DF51305B4
:10547000F05FEF101011C5B341DB9843E30D07DC7B
:105480008043D1BBEFA2DFD3411123A6A188B78708
:1054900001402AC023A607022E8A83C5C187B68C85
:1054A0009386C187894736C21389C1886399F500FD
:1054B0005E06135A9A00336A4601930C0020373C6B
:1054C000002093044C177D5D854A13054C173AC4A0
:1054D00023A4040023A2040023A0A40123AA5401AE
:1054E00023A6040023A80400B78D0140EF10F004A8
:1054F00083A74D01394413976700634E07009387D4
:10550000FCFF93950701C1811306F07F2247637862
:10551000B60013046002228541016FA03FCE3AC657
:10552000B3F79701FDF76685EFF07FC9373B0020A1
:10553000930B0BF6C14593070004130700402AC4E0
:1055400013050BF623A2BB0023A4FB0023A8EB004A
:1055500023A09B0123A60B00EF10007C4145EFF038
:105560000FA02A8493090BF65DF53247E3F5EAFABA
:10557000B385EC02370E0002E3FDC5F9224309476B
:1055800013054C17120323A46400CCC02EC4D8C446
:1055900023A0A40123AA540123A80400EF10E0795A
:1055A000494723A2EB0093070004130700401305AB
:1055B0000BF623A04B0123A4FB0023A60B0023A87A
:1055C000EB00EF1060754945EFF06F996311051816
:1055D00083C46180D5C0A245E39F54F302450146D0
:1055E000EFF05FBF13878188232007002382918813
:1055F000938651882380060083A6CD0393878188F4
:105600001387518893E6A63223AEDD0283A6CD022E
:105610003706024093E6860023A6DD02FD56832569
:1056200006401395250163480510B9C2FD16C5BF94
:105630002165EF10207405CD832709001387070229
:1056400083A60408910723AED7FEE39BE7FE232041
:10565000F9001304FAFFDC5893F7A732F1DB214578
:10566000EF10407105C12145EF10A07111A019E0A4
:10567000114455B57D14C5B77D54B7840140370A30
:105680008000D1BF0945EF10E06E11C50945EF104C
:10569000406F094449B513050002EF10A06D19C50C
:1056A00013050002EF10E06D1944B5B51305002095
:1056B000EF10406C0DC113050020EF10806C1D44ED
:1056C00099BD03240900EF10A0698327090008C0D1
:1056D00091072320F90037052000EF10A06975F12C
:1056E00013050010EF10006919E51305F05FEF10C6
:1056F000406901440DB5924798238947E3E7E7FEE7
:10570000B14723A2F9009307000423A4F9009307EB
:10571000004023A8F900B7370020138507F623A01F
:10572000090023A60900EF10205F3145EFF02F8319
:105730002A8445DDCDB38DDE142393F6F60F99E26E
:105740009443FDDA9843E30807DC8043E9B32A84F5
:10575000D9B3EFA2FFA60111A30F010011E51305B4
:10576000600205616FA09FA9B739002032C6378457
:10577000014093874917232604027D5798C3AA84C2
:10578000054713854917D8CB23A4070023A2070098
:1057900023A6070023A80700AE8B368BEF10E05935
:1057A0005C48138A4917394513976700E34B07FA9A
:1057B00003C7C187894732466310F70A5E0693DB49
:1057C0009B00B36B7601930A00205685EFF03F9F54
:1057D00037390020930709F64147AA8C930D00043E
:1057E000130509F6130D004023A05701D8C323A4C5
:1057F000B70123A6070023A8A701EF10E0514145F8
:10580000EFE0FFF5130409F629FD83A701881305CE
:1058100009F62328A401C2071CC0B5475CC0232495
:10582000B40123260400EF10204F3545EFE03FF38D
:10583000138D01881DF5B7870140DC4B7D5CB54DAC
:1058400093F707101307000493060040A9EF6314B1
:105850000C021305900231B79307FBFF93960701E3
:10586000C1821307F07FE36CD7EEB3F76701E398CB
:1058700007EEDA8A99BF83270D00130509F6232264
:10588000B401C2071CC018C42326040014C8EF10BA
:10589000A04835457D1CEFE09FECE31405EC37860E
:1058A00001405C4A71BF13059002E30C0CEAE1472A
:1058B0005CC0930700041CC4130509F6930700405D
:1058C00023207401232604001CC8EF10E044614526
:1058D000EFE0FFE8E31705E8FD5713844188920CD9
:1058E0000549138549172320FA00230004002324C7
:1058F0009A0123225A01232A2A0123260A00232857
:105900000A00EF10804383C76180F9C7639F2711A6
:105910004146D6852685EFF0FF8B138781882320AB
:105920000700938651882380060023000400B78671
:105930000140D05E938781881366A631D0DED056B1
:1059400013668600D0D6938651887D56370702406D
:10595000832507401395250163420510631E060E3B
:10596000EFF08FBCB5A01165EF10C0402DC133071B
:105970002B4163E2EA04935727000D8B11C385077F
:1059800013942700B38B8400639274032299130449
:10599000FAFF83A7490393F7A761F1D72145EF10D9
:1059A000603D39C12145EF10C03D1DA088409104E4
:1059B000EF10A03BD1BF2684938404020840110459
:1059C000EF10A03AE39C84FE13090902C9B719E05D
:1059D000114541BB7D1475BF01497D54B789014014
:1059E000FD4A370A004075B70945EF10A03811C5C8
:1059F0000945EF1000390945ADB34145EF10803737
:105A000011C54145EF10E0371545A1BB1305002036
:105A1000EF10403619C513050020EF1080361D45E4
:105A200089B39307F05F23ACF9021305F05FEF1021
:105A300040351305F101EFF02FBB0544E31305D208
:105A40008347F101E91793F7F70FE36CF4D01305DF
:105A5000F101EFF06FB9DDB77D16DDBD7D57E301D4
:105A600006F090221376F60F11E6904301E62DD34F
:105A70007D17C5BF31DF98434DDB8843DDB1EFA211
:105A80002FF40111A30F010011E513056002056158
:105A90006FA0CFF6373A002032C637840140930713
:105AA0004A1723260402BA897D5798C3AA8405475A
:105AB00013054A17D8CB23A4070023A2070023A667
:105AC000070023A80700AE8B368CEF1000275C4838
:105AD000930A4A17394513976700E34A07FA03C741
